:100000000C9458000C9480000C9480000C94800098
:100010000C9480000C9480000C9480000C94800060
:100020000C9480000C9480000C9480000C94800050
:100030000C9480000C9480000C9480000C94800040
:100040000C9445040C9480000C9480000C94800067
:100050000C9480000C9480000C9480000C94800020
:100060000C948F040C9480000000000025002800F0
:100070002B00040404040404040402020202020229
:10008000030303030303010204081020408001025C
:1000900004081020010204081020000000080002DB
:1000A0000100000304070000000000000000AE058E
:1000B00011241FBECFEFD8E0DEBFCDBF11E0A0E01E
:1000C000B1E0E0E5FEE002C005900D92A834B10772
:1000D000D9F722E0A8E4B1E001C01D92A532B20731
:1000E000E1F710E0C8E5D0E004C02197FE010E94CE
:1000F0002007C735D107C9F70E94CE050C94260703
:100100000C94000090E0FC01E656FF4F2491FC01A6
:10011000EA57FF4F3491FC01EE58FF4FE491EE2374
:10012000C9F0222339F0233001F1A8F4213019F16C
:10013000223029F1F0E0EE0FFF1FE859FF4FA591A3
:10014000B4918FB7F894EC91611126C030953E239D
:100150003C938FBF08952730A9F02830C9F0243090
:1001600049F7809180008F7D03C0809180008F7758
:1001700080938000DFCF84B58F7784BDDBCF84B5DB
:100180008F7DFBCF8091B0008F778093B000D2CF6E
:100190008091B0008F7DF9CF3E2BDACF3FB7F89436
:1001A0008091090290910A02A0910B02B0910C0279
:1001B00026B5A89B05C02F3F19F00196A11DB11DC2
:1001C0003FBFBA2FA92F982F8827BC01CD01620FFE
:1001D000711D811D911D42E0660F771F881F991FB9
:1001E0004A95D1F708958F929F92AF92BF92CF9286
:1001F000DF92EF92FF924B015C010E94CE006B01F7
:100200007C010E94CE006C197D098E099F09683E11
:10021000734081059105A8F321E0821A9108A10895
:10022000B10888EEC80E83E0D81EE11CF11C8114D1
:100230009104A104B10429F7FF90EF90DF90CF90D3
:10024000BF90AF909F908F90089508950895AF92BA
:10025000BF92CF92DF92EF92FF920F931F93CF93B3
:10026000DF936C017B018B01040F151FEB015E0115
:10027000AE18BF08C017D10759F06991D601ED91AA
:10028000FC910190F081E02DC6010995892B79F749
:10029000C501DF91CF911F910F91FF90EF90DF90FB
:1002A000CF90BF90AF900895089520918901260FB7
:1002B0003327331F21323105ECF42091D201FC01A8
:1002C00090E080E0243069F082E00895A0918901F7
:1002D0002191AC0147595E4FA40FB52FB11D2C934E
:1002E0000196861798F380918901680F60938901C0
:1002F00080E0089581E008951092D20181E080931A
:10030000D1011092AC0161E082E10E94820061E0C3
:1003100083E10E948200E9EBF0E080818E7F8083A0
:1003200080818D7F808388E48093B80085E480930A
:10033000BC000895CF93DF9391E0909368018823E8
:10034000B9F0C091B800D091BA008091BC008A7B0E
:100350008093BC0060E082E10E94820060E083E163
:100360000E9482000E947C01D093BA00C093B80022
:10037000DF91CF9108950895E091010280910002EC
:10038000E81730F4F0E0E85BFE4F808190E00895DC
:100390008FEF9FEF089590910102809100022FEF5F
:1003A0003FEF981748F4E92FF0E0E85BFE4F20811B
:1003B00030E09F5F90930102C9010895809100028F
:1003C00090910102891B990B0895CF92DF92EF92D1
:1003D000FF920F931F93CF93DF937C01CB018A0190
:1003E0002091D801222389F0EB016B01C40ED51EA8
:1003F000CC15DD0569F06991D701ED91FC91019073
:10040000F081E02DC7010995F3CF642F0E945501BB
:10041000C801DF91CF911F910F91FF90EF90DF9076
:10042000CF900895CF93DF931F92CDB7DEB7698346
:100430002091D8012223F9F02091FE01203258F0BA
:1004400021E030E0FC013383228390E080E00F90D4
:10045000DF91CF9108958091FF01E82FF0E0E752FE
:10046000FE4F998190838F5F8093FF018093FE01FF
:1004700081E090E0ECCF61E0CE0101960E94550151
:10048000F7CFCF92DF92EF92FF920F931F93CF930C
:10049000DF93FC01C48121E02093D801C093F901CE
:1004A0001092FF011092FE018385682B8DE092E08F
:1004B0000E941202D091FE01D13208F092C00E9437
:1004C000CE006B017C018091D201811165C082E078
:1004D0008093D20181E08093D1018FEF8093D0018E
:1004E0001092CF01D093CE01A9EDB1E0EEEAF1E098
:1004F00080E0D81385C01092AD018091AD01CC0F82
:10050000C82BC093AD018091AC01813009F07CC053
:100510001092AC010E94CE006B017C018091AD0174
:100520008093BB008091D4019091D501A091D60118
:10053000B091D701892B8A2B8B2B99F00E94CE008A
:100540000091D4011091D5012091D6013091D701AD
:100550006C197D098E099F090617170728073907A7
:10056000E0F18091BC0083FDD9CF85EC8093BC0085
:100570000E94CE006B017C018091D201823009F48F
:1005800045C08091D0018F3F61F18091D0018032D0
:1005900041F18091D00125C08091D4019091D50185
:1005A000A091D601B091D701892B8A2B8B2B09F40E
:1005B0008ACF0E94CE000091D4011091D5012091E4
:1005C000D6013091D7016C197D098E099F09061754
:1005D00017072807390708F076CF8091D3010E94CA
:1005E0009A011092FF011092FE011092D801DF9142
:1005F000CF911F910F91FF90EF90DF90CF900895D2
:100600009D9191938F5F75CF85EEB0CF8091D4018E
:100610009091D501A091D601B091D701892B8A2B59
:100620008B2B09F4A9CF0E94CE000091D401109128
:10063000D5012091D6013091D7016C197D098E0921
:100640009F09061717072807390708F095CFC5CF68
:1006500090E080E008950F931F93CF938C01C62FF5
:100660000E9441026C2F6460C8010E9441026C2FFD
:100670006B7FC8010E94410283EC90E00197F1F783
:10068000CF911F910F9108950F931F93CF93DF93F5
:100690008C01D62FC42F607F642B0E942B0380E136
:1006A000D89FB00111246C2BC801DF91CF911F910D
:1006B0000F910C942B03CF93DF93823028F090910D
:1006C0001E02986090931E028093210262E370E004
:1006D00080E090E00E94F3006091240289E192E0C2
:1006E0000E94410268EE73E080E090E00E94F30017
:1006F00060E389E192E00E942B03CBE4D6E4CE01D3
:100700000197F1F760E389E192E00E942B032197C2
:10071000F1F760E389E192E00E942B0383E592E028
:100720000197F1F760E289E192E00E942B0360916A
:100730001E02606240E089E192E00E94440384E08E
:1007400080931F0240E06CE089E192E00E94440344
:1007500040E061E089E192E00E944403CBE3DFE105
:10076000CE010197F1F782E08093200240E066E03D
:1007700089E192E00E94440340E062E089E192E076
:100780000E9444032197F1F7DF91CF910895CF9311
:10079000DF93CDB7DEB728970FB6F894DEBF0FBE54
:1007A000CDBF98E0E1E1F1E0DE01119601900D92FC
:1007B0009A95E1F790912102961710F46FEF690F67
:1007C000262F30E0220F331F41E050E04C0F5D1F19
:1007D000240F351FF9016081680F606840E089E1EE
:1007E00092E028960FB6F894DEBF0FBECDBFDF9122
:1007F000CF910C944403682F80E00E94C70340E12E
:1008000050E067E371E089E192E00C94270141E058
:100810000E94440381E090E0089585ED8093BC0040
:100820008091D4019091D501A091D601B091D701CA
:100830000796A11DB11D23E0B695A79597958795BD
:100840002A95D1F72091BC0024FD03C01092D2015B
:1008500008954091D4015091D5016091D6017091D5
:10086000D701452B462B472B69F30097A105B1050E
:1008700041F02AE22A95F1F700C00197A109B109D8
:10088000E1CF8091D3010C949A011F920F920FB681
:100890000F9211242F933F938F939F93AF93BF9306
:1008A0008091050290910602A0910702B091080282
:1008B0003091040223E0230F2D3758F50196A11D36
:1008C000B11D209304028093050290930602A09329
:1008D0000702B09308028091090290910A02A09148
:1008E0000B02B0910C020196A11DB11D809309026B
:1008F00090930A02A0930B02B0930C02BF91AF91A8
:100900009F918F913F912F910F900FBE0F901F904D
:10091000189526E8230F0296A11DB11DD2CF1F9274
:100920000F920FB60F9211242F933F934F935F9323
:100930006F937F938F939F93AF93BF93EF93FF93A7
:100940008091B900887F803609F44AC0F0F588327A
:1009500009F4A7C018F5803109F49BC0B8F48823C6
:1009600009F4F9C0883009F494C0FF91EF91BF9168
:10097000AF919F918F917F916F915F914F913F9137
:100980002F910F900FBE0F901F901895883109F48A
:1009900088C0803251F78093D00114C0803409F4AC
:1009A0009DC040F48033B9F38833F9F68093D001C9
:1009B00085ECB0C0803509F485C0883509F496C04F
:1009C000883499F60E940D04D0CF883909F48CC080
:1009D00038F5883729F050F4883611F0803729F639
:1009E00083E08093D2011092AB0157C0883809F49C
:1009F0007BC0803919F0803809F0B7CF8091AB0106
:100A0000803208F071C0E091AB0181E08E0F8093DD
:100A1000AB018091BB00F0E0E557FE4F80833DC005
:100A2000803B39F0E0F4803A09F479C0883A09F063
:100A30009CCF84E08093D20110928A0110928901A8
:100A4000E091FC01F091FD010995809189018111EE
:100A50000FC081E0809389011092690109C0803C38
:100A600009F4A6CF883C09F4A3CF883B09F07DCFD9
:100A7000E0918A0181E08E0F80938A01F0E0E759CE
:100A8000FE4F80818093BB0090918A018091890103
:100A900029C08091AD018093BB0085EC8093BC00A0
:100AA00064CF9091CF018091CE01981758F5E091D5
:100AB000CF0181E08E0F8093CF01F0E0E255FE4F31
:100AC0008081E9CFE091CF0181E08E0F8093CF014B
:100AD0008091BB00F0E0E255FE4F80839091CF0102
:100AE0008091CE019817C8F285E8D8CFE091CF0168
:100AF00081E08E0F8093CF018091BB00F0E0E25542
:100B0000FE4F80838091D10181115CCF81E0809381
:100B1000AC0184EA8093BC001092D20126CF85EC10
:100B20008093BC001092D2018091AB01803230F4EE
:100B3000E091AB01F0E0E557FE4F10826091AB0110
:100B400070E0E091FA01F091FB018BE891E00995EA
:100B50001092AB010ACF1092D00134CFEDE0F2E059
:100B60001382128288EE93E0A0E0B0E08483958344
:100B7000A683B7838DE191E091838083E9E1F2E080
:100B8000138212828FE291E09183808387E28483D3
:100B900080E1818782E0828713860895789484B506
:100BA000826084BD84B5816084BD85B5826085BD69
:100BB00085B5816085BD80916E00816080936E00F7
:100BC00010928100809181008260809381008091E9
:100BD000810081608093810080918000816080939A
:100BE00080008091B10084608093B1008091B0005A
:100BF00081608093B00080917A00846080937A0055
:100C000080917A00826080937A0080917A0081607E
:100C100080937A0080917A00806880937A001092A5
:100C2000C10010920102109200021092FF01109276
:100C3000FE010E947C0185E291E09093FD0180938A
:100C4000FC0186E291E09093FB018093FA011092FF
:100C50001E02809123020E945B0382E00E945B03DC
:100C600088E08093240260E089E192E00E944102E2
:100C700040E060E489E192E00E944403C8E0D1E0F2
:100C8000699189E192E00E94070481E0C031D807B0
:100C9000B9F740E068E489E192E00E944403C0E0D3
:100CA000D1E008E011E0699189E192E00E94070437
:100CB0000C171D07C1F72FE0A22EB12C3DE0832EAB
:100CC000912C48E0542E57E0452E60E0662E60E0FF
:100CD000762EC091100190E080E0CC2309F45FC033
:100CE0000E94FB03009102021091030260E0852D37
:100CF000801B0E94C703000F111FC0E0F12CE12CE4
:100D00000E151F0564F06C2F617089E192E00E945E
:100D100007049FEFE91AF90ACF5FC170F1CF81E0B4
:100D200090E00E94FB03E0900202F090030261E079
:100D3000842D8E190E94C703C0E0D12CC12C0E5FF8
:100D40001F4F0C151D0564F06C2F617089E192E056
:100D50000E9407048FEFC81AD80ACF5FC170F1CF85
:100D600096E0E916F104A4F48FEFE81AF80AF0927D
:100D70000302E09202026CEB72E080E090E00E94DD
:100D8000F3006114710409F4A4CF0E940000A1CF04
:100D9000109210011092030210920202ECCF0E94F6
:100DA000FB03E0900202F090030260E081E08E0D10
:100DB0000E94C703EE0CFF1C6501CE18DF08D0E0CF
:100DC00010E000E00C151D055CF46D2F617089E1E9
:100DD00092E00E9407040F5F1F4FDF5FD170F2CFD8
:100DE00081E090E00E94FB03009102021091030257
:100DF00061E082E0800F0E94C703D12CC12CC401A6
:100E00008E199F097C01CE14DF0464F46C2F61708D
:100E100089E192E00E9407049FEFC91AD90ACF5FC7
:100E2000C170F1CF063011053CF40F5F1F4F1093D6
:100E30000302009302029FCF81E080931001AACFAA
:100E4000EE0FFF1F0590F491E02D0994F894FFCF69
:100E500000000A00000E110000000A0000110E0040
:100E6000010000400014005400000000001202E5E0
:100E7000012803BB01DE01CB01BC0100000000071B
:100E80000427012803540120202020202020202096
:080E900020202020202020007A
:00000001FF
